{
  "abi": [
    {
      "type": "function",
      "name": "NAME",
      "inputs": [],
      "outputs": [
        {
          "name": "",
          "type": "string",
          "internalType": "string"
        }
      ],
      "stateMutability": "view"
    },
    {
      "type": "function",
      "name": "UPGRADE_INTERFACE_VERSION",
      "inputs": [],
      "outputs": [
        {
          "name": "",
          "type": "string",
          "internalType": "string"
        }
      ],
      "stateMutability": "view"
    },
    {
      "type": "function",
      "name": "VERSION",
      "inputs": [],
      "outputs": [
        {
          "name": "",
          "type": "string",
          "internalType": "string"
        }
      ],
      "stateMutability": "view"
    },
    {
      "type": "function",
      "name": "activeSessions",
      "inputs": [
        {
          "name": "",
          "type": "uint256",
          "internalType": "uint256"
        }
      ],
      "outputs": [
        {
          "name": "expiry",
          "type": "uint48",
          "internalType": "uint48"
        },
        {
          "name": "owner",
          "type": "address",
          "internalType": "address"
        },
        {
          "name": "account",
          "type": "address",
          "internalType": "address"
        }
      ],
      "stateMutability": "view"
    },
    {
      "type": "function",
      "name": "addSigner",
      "inputs": [
        {
          "name": "signer",
          "type": "address",
          "internalType": "address"
        }
      ],
      "outputs": [],
      "stateMutability": "nonpayable"
    },
    {
      "type": "function",
      "name": "checkAfterExecution",
      "inputs": [
        {
          "name": "",
          "type": "bytes32",
          "internalType": "bytes32"
        },
        {
          "name": "",
          "type": "bool",
          "internalType": "bool"
        }
      ],
      "outputs": [],
      "stateMutability": "nonpayable"
    },
    {
      "type": "function",
      "name": "checkTransaction",
      "inputs": [
        {
          "name": "",
          "type": "address",
          "internalType": "address"
        },
        {
          "name": "",
          "type": "uint256",
          "internalType": "uint256"
        },
        {
          "name": "",
          "type": "bytes",
          "internalType": "bytes"
        },
        {
          "name": "",
          "type": "uint8",
          "internalType": "enum Enum.Operation"
        },
        {
          "name": "",
          "type": "uint256",
          "internalType": "uint256"
        },
        {
          "name": "",
          "type": "uint256",
          "internalType": "uint256"
        },
        {
          "name": "",
          "type": "uint256",
          "internalType": "uint256"
        },
        {
          "name": "",
          "type": "address",
          "internalType": "address"
        },
        {
          "name": "",
          "type": "address",
          "internalType": "address payable"
        },
        {
          "name": "",
          "type": "bytes",
          "internalType": "bytes"
        },
        {
          "name": "",
          "type": "address",
          "internalType": "address"
        }
      ],
      "outputs": [],
      "stateMutability": "nonpayable"
    },
    {
      "type": "function",
      "name": "confirm",
      "inputs": [
        {
          "name": "sessionRequestHash",
          "type": "bytes32",
          "internalType": "bytes32"
        },
        {
          "name": "sessionHash",
          "type": "bytes32",
          "internalType": "bytes32"
        },
        {
          "name": "ownerSignedSessionHash",
          "type": "bytes",
          "internalType": "bytes"
        }
      ],
      "outputs": [],
      "stateMutability": "nonpayable"
    },
    {
      "type": "function",
      "name": "contractExists",
      "inputs": [
        {
          "name": "contractAddress",
          "type": "address",
          "internalType": "address"
        }
      ],
      "outputs": [
        {
          "name": "",
          "type": "bool",
          "internalType": "bool"
        }
      ],
      "stateMutability": "view"
    },
    {
      "type": "function",
      "name": "domainSeparator",
      "inputs": [],
      "outputs": [
        {
          "name": "",
          "type": "bytes32",
          "internalType": "bytes32"
        }
      ],
      "stateMutability": "view"
    },
    {
      "type": "function",
      "name": "encodeMessageDataForSafe",
      "inputs": [
        {
          "name": "safe",
          "type": "address",
          "internalType": "contract Safe"
        },
        {
          "name": "message",
          "type": "bytes",
          "internalType": "bytes"
        }
      ],
      "outputs": [
        {
          "name": "",
          "type": "bytes",
          "internalType": "bytes"
        }
      ],
      "stateMutability": "view"
    },
    {
      "type": "function",
      "name": "getChainId",
      "inputs": [],
      "outputs": [
        {
          "name": "",
          "type": "uint256",
          "internalType": "uint256"
        }
      ],
      "stateMutability": "view"
    },
    {
      "type": "function",
      "name": "getMessageHash",
      "inputs": [
        {
          "name": "message",
          "type": "bytes",
          "internalType": "bytes"
        }
      ],
      "outputs": [
        {
          "name": "",
          "type": "bytes32",
          "internalType": "bytes32"
        }
      ],
      "stateMutability": "view"
    },
    {
      "type": "function",
      "name": "getMessageHashForSafe",
      "inputs": [
        {
          "name": "safe",
          "type": "address",
          "internalType": "contract Safe"
        },
        {
          "name": "message",
          "type": "bytes",
          "internalType": "bytes"
        }
      ],
      "outputs": [
        {
          "name": "",
          "type": "bytes32",
          "internalType": "bytes32"
        }
      ],
      "stateMutability": "view"
    },
    {
      "type": "function",
      "name": "getModules",
      "inputs": [],
      "outputs": [
        {
          "name": "",
          "type": "address[]",
          "internalType": "address[]"
        }
      ],
      "stateMutability": "view"
    },
    {
      "type": "function",
      "name": "initialize",
      "inputs": [
        {
          "name": "_owner",
          "type": "address",
          "internalType": "address"
        },
        {
          "name": "_twoFAFactory",
          "type": "address",
          "internalType": "address"
        }
      ],
      "outputs": [],
      "stateMutability": "nonpayable"
    },
    {
      "type": "function",
      "name": "isValidSignature",
      "inputs": [
        {
          "name": "_dataHash",
          "type": "bytes32",
          "internalType": "bytes32"
        },
        {
          "name": "_signature",
          "type": "bytes",
          "internalType": "bytes"
        }
      ],
      "outputs": [
        {
          "name": "",
          "type": "bytes4",
          "internalType": "bytes4"
        }
      ],
      "stateMutability": "view"
    },
    {
      "type": "function",
      "name": "isValidSignature",
      "inputs": [
        {
          "name": "_data",
          "type": "bytes",
          "internalType": "bytes"
        },
        {
          "name": "_signature",
          "type": "bytes",
          "internalType": "bytes"
        }
      ],
      "outputs": [
        {
          "name": "",
          "type": "bytes4",
          "internalType": "bytes4"
        }
      ],
      "stateMutability": "view"
    },
    {
      "type": "function",
      "name": "onERC1155BatchReceived",
      "inputs": [
        {
          "name": "",
          "type": "address",
          "internalType": "address"
        },
        {
          "name": "",
          "type": "address",
          "internalType": "address"
        },
        {
          "name": "",
          "type": "uint256[]",
          "internalType": "uint256[]"
        },
        {
          "name": "",
          "type": "uint256[]",
          "internalType": "uint256[]"
        },
        {
          "name": "",
          "type": "bytes",
          "internalType": "bytes"
        }
      ],
      "outputs": [
        {
          "name": "",
          "type": "bytes4",
          "internalType": "bytes4"
        }
      ],
      "stateMutability": "pure"
    },
    {
      "type": "function",
      "name": "onERC1155Received",
      "inputs": [
        {
          "name": "",
          "type": "address",
          "internalType": "address"
        },
        {
          "name": "",
          "type": "address",
          "internalType": "address"
        },
        {
          "name": "",
          "type": "uint256",
          "internalType": "uint256"
        },
        {
          "name": "",
          "type": "uint256",
          "internalType": "uint256"
        },
        {
          "name": "",
          "type": "bytes",
          "internalType": "bytes"
        }
      ],
      "outputs": [
        {
          "name": "",
          "type": "bytes4",
          "internalType": "bytes4"
        }
      ],
      "stateMutability": "pure"
    },
    {
      "type": "function",
      "name": "onERC721Received",
      "inputs": [
        {
          "name": "",
          "type": "address",
          "internalType": "address"
        },
        {
          "name": "",
          "type": "address",
          "internalType": "address"
        },
        {
          "name": "",
          "type": "uint256",
          "internalType": "uint256"
        },
        {
          "name": "",
          "type": "bytes",
          "internalType": "bytes"
        }
      ],
      "outputs": [
        {
          "name": "",
          "type": "bytes4",
          "internalType": "bytes4"
        }
      ],
      "stateMutability": "pure"
    },
    {
      "type": "function",
      "name": "owner",
      "inputs": [],
      "outputs": [
        {
          "name": "",
          "type": "address",
          "internalType": "address"
        }
      ],
      "stateMutability": "view"
    },
    {
      "type": "function",
      "name": "proxiableUUID",
      "inputs": [],
      "outputs": [
        {
          "name": "",
          "type": "bytes32",
          "internalType": "bytes32"
        }
      ],
      "stateMutability": "view"
    },
    {
      "type": "function",
      "name": "removeExpiredSessions",
      "inputs": [],
      "outputs": [],
      "stateMutability": "nonpayable"
    },
    {
      "type": "function",
      "name": "renounceOwnership",
      "inputs": [],
      "outputs": [],
      "stateMutability": "nonpayable"
    },
    {
      "type": "function",
      "name": "request",
      "inputs": [
        {
          "name": "sessionSalt",
          "type": "bytes32",
          "internalType": "bytes32"
        },
        {
          "name": "sessionRequestHash",
          "type": "bytes32",
          "internalType": "bytes32"
        },
        {
          "name": "signedSessionRequestHash",
          "type": "bytes",
          "internalType": "bytes"
        },
        {
          "name": "signedSessionHash",
          "type": "bytes",
          "internalType": "bytes"
        },
        {
          "name": "sessionRequestExpiry",
          "type": "uint48",
          "internalType": "uint48"
        }
      ],
      "outputs": [],
      "stateMutability": "nonpayable"
    },
    {
      "type": "function",
      "name": "revoke",
      "inputs": [
        {
          "name": "signer",
          "type": "address",
          "internalType": "address"
        }
      ],
      "outputs": [],
      "stateMutability": "nonpayable"
    },
    {
      "type": "function",
      "name": "sessionRequests",
      "inputs": [
        {
          "name": "",
          "type": "address",
          "internalType": "address"
        },
        {
          "name": "",
          "type": "bytes32",
          "internalType": "bytes32"
        }
      ],
      "outputs": [
        {
          "name": "expiry",
          "type": "uint48",
          "internalType": "uint48"
        },
        {
          "name": "signedSessionHash",
          "type": "bytes",
          "internalType": "bytes"
        },
        {
          "name": "provider",
          "type": "address",
          "internalType": "address"
        },
        {
          "name": "owner",
          "type": "address",
          "internalType": "address"
        },
        {
          "name": "account",
          "type": "address",
          "internalType": "address"
        }
      ],
      "stateMutability": "view"
    },
    {
      "type": "function",
      "name": "simulate",
      "inputs": [
        {
          "name": "targetContract",
          "type": "address",
          "internalType": "address"
        },
        {
          "name": "calldataPayload",
          "type": "bytes",
          "internalType": "bytes"
        }
      ],
      "outputs": [
        {
          "name": "response",
          "type": "bytes",
          "internalType": "bytes"
        }
      ],
      "stateMutability": "nonpayable"
    },
    {
      "type": "function",
      "name": "supportsInterface",
      "inputs": [
        {
          "name": "interfaceId",
          "type": "bytes4",
          "internalType": "bytes4"
        }
      ],
      "outputs": [
        {
          "name": "",
          "type": "bool",
          "internalType": "bool"
        }
      ],
      "stateMutability": "view"
    },
    {
      "type": "function",
      "name": "tokensReceived",
      "inputs": [
        {
          "name": "",
          "type": "address",
          "internalType": "address"
        },
        {
          "name": "",
          "type": "address",
          "internalType": "address"
        },
        {
          "name": "",
          "type": "address",
          "internalType": "address"
        },
        {
          "name": "",
          "type": "uint256",
          "internalType": "uint256"
        },
        {
          "name": "",
          "type": "bytes",
          "internalType": "bytes"
        },
        {
          "name": "",
          "type": "bytes",
          "internalType": "bytes"
        }
      ],
      "outputs": [],
      "stateMutability": "pure"
    },
    {
      "type": "function",
      "name": "transferOwnership",
      "inputs": [
        {
          "name": "newOwner",
          "type": "address",
          "internalType": "address"
        }
      ],
      "outputs": [],
      "stateMutability": "nonpayable"
    },
    {
      "type": "function",
      "name": "twoFAFactory",
      "inputs": [],
      "outputs": [
        {
          "name": "",
          "type": "address",
          "internalType": "address"
        }
      ],
      "stateMutability": "view"
    },
    {
      "type": "function",
      "name": "upgradeToAndCall",
      "inputs": [
        {
          "name": "newImplementation",
          "type": "address",
          "internalType": "address"
        },
        {
          "name": "data",
          "type": "bytes",
          "internalType": "bytes"
        }
      ],
      "outputs": [],
      "stateMutability": "payable"
    },
    {
      "type": "event",
      "name": "Confirmed",
      "inputs": [
        {
          "name": "provider",
          "type": "address",
          "indexed": true,
          "internalType": "address"
        },
        {
          "name": "account",
          "type": "address",
          "indexed": true,
          "internalType": "address"
        },
        {
          "name": "sessionOwner",
          "type": "address",
          "indexed": false,
          "internalType": "address"
        }
      ],
      "anonymous": false
    },
    {
      "type": "event",
      "name": "Initialized",
      "inputs": [
        {
          "name": "version",
          "type": "uint64",
          "indexed": false,
          "internalType": "uint64"
        }
      ],
      "anonymous": false
    },
    {
      "type": "event",
      "name": "OwnershipTransferred",
      "inputs": [
        {
          "name": "previousOwner",
          "type": "address",
          "indexed": true,
          "internalType": "address"
        },
        {
          "name": "newOwner",
          "type": "address",
          "indexed": true,
          "internalType": "address"
        }
      ],
      "anonymous": false
    },
    {
      "type": "event",
      "name": "Requested",
      "inputs": [
        {
          "name": "provider",
          "type": "address",
          "indexed": true,
          "internalType": "address"
        },
        {
          "name": "sessionRequestHash",
          "type": "bytes32",
          "indexed": false,
          "internalType": "bytes32"
        }
      ],
      "anonymous": false
    },
    {
      "type": "event",
      "name": "Upgraded",
      "inputs": [
        {
          "name": "implementation",
          "type": "address",
          "indexed": true,
          "internalType": "address"
        }
      ],
      "anonymous": false
    },
    {
      "type": "error",
      "name": "AccountNotCreated",
      "inputs": []
    },
    {
      "type": "error",
      "name": "AddressEmptyCode",
      "inputs": [
        {
          "name": "target",
          "type": "address",
          "internalType": "address"
        }
      ]
    },
    {
      "type": "error",
      "name": "ERC1967InvalidImplementation",
      "inputs": [
        {
          "name": "implementation",
          "type": "address",
          "internalType": "address"
        }
      ]
    },
    {
      "type": "error",
      "name": "ERC1967NonPayable",
      "inputs": []
    },
    {
      "type": "error",
      "name": "FailedInnerCall",
      "inputs": []
    },
    {
      "type": "error",
      "name": "FailedToAddSigner",
      "inputs": []
    },
    {
      "type": "error",
      "name": "FailedToRemoveSigner",
      "inputs": []
    },
    {
      "type": "error",
      "name": "InvalidInitialization",
      "inputs": []
    },
    {
      "type": "error",
      "name": "InvalidOwnerSignedSessionHash",
      "inputs": []
    },
    {
      "type": "error",
      "name": "InvalidProvider",
      "inputs": []
    },
    {
      "type": "error",
      "name": "NotInitializing",
      "inputs": []
    },
    {
      "type": "error",
      "name": "OwnableInvalidOwner",
      "inputs": [
        {
          "name": "owner",
          "type": "address",
          "internalType": "address"
        }
      ]
    },
    {
      "type": "error",
      "name": "OwnableUnauthorizedAccount",
      "inputs": [
        {
          "name": "account",
          "type": "address",
          "internalType": "address"
        }
      ]
    },
    {
      "type": "error",
      "name": "ReentrancyGuardReentrantCall",
      "inputs": []
    },
    {
      "type": "error",
      "name": "SessionOwnerIsProvider",
      "inputs": []
    },
    {
      "type": "error",
      "name": "SessionRequestExpired",
      "inputs": []
    },
    {
      "type": "error",
      "name": "SessionRequestNotFound",
      "inputs": []
    },
    {
      "type": "error",
      "name": "SignerAlreadyExists",
      "inputs": []
    },
    {
      "type": "error",
      "name": "SignerNotOwner",
      "inputs": []
    },
    {
      "type": "error",
      "name": "UUPSUnauthorizedCallContext",
      "inputs": []
    },
    {
      "type": "error",
      "name": "UUPSUnsupportedProxiableUUID",
      "inputs": [
        {
          "name": "slot",
          "type": "bytes32",
          "internalType": "bytes32"
        }
      ]
    }
  ],
  "bytecode": {
    "object": "0x60a06040523060805234801561001457600080fd5b5060805161323661003e60003960008181611b3401528181611b5d0152611ca301526132366000f3fe6080604052600436106101f85760003560e01c80638da5cb5b1161010d578063c6e5a419116100a0578063f23a6e611161006f578063f23a6e6114610659578063f2fde38b14610686578063f681de3b146106a6578063f698da25146106d7578063ffa1ad74146106ec57600080fd5b8063c6e5a419146105ab578063e26be210146105f9578063eb12d61e14610619578063ee2b8f3e1461063957600080fd5b8063b2494df3116100dc578063b2494df31461051a578063bc197c811461053c578063bd1776931461056b578063bd61951d1461058b57600080fd5b80638da5cb5b1461043f5780639327136814610490578063a3f4df7e146104af578063ad3cb1cc146104e957600080fd5b80633f8c0a10116101905780636ac247841161015f5780636ac24784146103a9578063715018a6146103c957806374a8f103146103de57806375f0bb52146103fe5780637709bc781461041e57600080fd5b80633f8c0a101461034c578063485cc955146103615780634f1ef2861461038157806352d1902d1461039457600080fd5b80631626ba7e116101cc5780631626ba7e146102cc57806320c13b0b146102ec578063230316401461030c5780633408e4701461033957600080fd5b806223de29146101fd57806301ffc9a7146102245780630a1028c414610259578063150b7a0214610287575b600080fd5b34801561020957600080fd5b50610222610218366004612530565b5050505050505050565b005b34801561023057600080fd5b5061024461023f3660046125f6565b61071d565b60405190151581526020015b60405180910390f35b34801561026557600080fd5b506102796102743660046126c8565b610754565b604051908152602001610250565b34801561029357600080fd5b506102b36102a2366004612704565b630a85bd0160e11b95945050505050565b6040516001600160e01b03199091168152602001610250565b3480156102d857600080fd5b506102b36102e7366004612776565b610760565b3480156102f857600080fd5b506102b36103073660046127c1565b61081e565b34801561031857600080fd5b5061032c610327366004612824565b610969565b60405161025091906128b9565b34801561034557600080fd5b5046610279565b34801561035857600080fd5b50610222610a7b565b34801561036d57600080fd5b5061022261037c3660046128cc565b610b93565b61022261038f366004612824565b610ccd565b3480156103a057600080fd5b50610279610ce8565b3480156103b557600080fd5b506102796103c4366004612824565b610d05565b3480156103d557600080fd5b50610222610d20565b3480156103ea57600080fd5b506102226103f9366004612905565b610d34565b34801561040a57600080fd5b50610222610419366004612931565b610de2565b34801561042a57600080fd5b50610244610439366004612905565b3b151590565b34801561044b57600080fd5b507f9016d09d72d40fdae2fd8ceac6b6234c7706214fd39c1cd1e609a0528c199300546001600160a01b03165b6040516001600160a01b039091168152602001610250565b34801561049c57600080fd5b506102226104ab366004612a23565b5050565b3480156104bb57600080fd5b5061032c6040518060400160405280600e81526020016d53657373696f6e204d6f64756c6560901b81525081565b3480156104f557600080fd5b5061032c604051806040016040528060058152602001640352e302e360dc1b81525081565b34801561052657600080fd5b5061052f610df7565b6040516102509190612a48565b34801561054857600080fd5b506102b3610557366004612ad9565b63bc197c8160e01b98975050505050505050565b34801561057757600080fd5b50610222610586366004612b76565b610e72565b34801561059757600080fd5b5061032c6105a6366004612c17565b6110fa565b3480156105b757600080fd5b506105cb6105c6366004612c52565b611144565b6040805165ffffffffffff90941684526001600160a01b039283166020850152911690820152606001610250565b34801561060557600080fd5b50610222610614366004612c6b565b61118e565b34801561062557600080fd5b50610222610634366004612905565b61156b565b34801561064557600080fd5b50600054610478906001600160a01b031681565b34801561066557600080fd5b506102b3610674366004612cbd565b63f23a6e6160e01b9695505050505050565b34801561069257600080fd5b506102226106a1366004612905565b61161a565b3480156106b257600080fd5b506106c66106c1366004612d38565b611655565b604051610250959493929190612d64565b3480156106e357600080fd5b5061027961172d565b3480156106f857600080fd5b5061032c60405180604001604052806005815260200164181718171960d91b81525081565b60006001600160e01b0319821663736bd41d60e11b148061074e57506001600160e01b031982166301ffc9a760e01b145b92915050565b600061074e3383610d05565b60408051602080820186905282518083039091018152818301928390526320c13b0b60e01b9092526000913391839183916320c13b0b916107a79189908990604401612daf565b602060405180830381865afa1580156107c4573d6000803e3d6000fd5b505050506040513d601f19601f820116820180604052508101906107e89190612df5565b90506001600160e01b031981166320c13b0b60e01b14610809576000610812565b630b135d3f60e11b5b925050505b9392505050565b6000338161082c8286610969565b805160208201208551919250906000036108f657604051635ae6bd3760e01b8152600481018290526001600160a01b03841690635ae6bd3790602401602060405180830381865afa158015610885573d6000803e3d6000fd5b505050506040513d601f19601f820116820180604052508101906108a99190612e12565b6000036108f15760405162461bcd60e51b815260206004820152601160248201527012185cda081b9bdd08185c1c1c9bdd9959607a1b60448201526064015b60405180910390fd5b610957565b60405163934f3a1160e01b81526001600160a01b0384169063934f3a119061092690849086908a90600401612e2b565b60006040518083038186803b15801561093e57600080fd5b505afa158015610952573d6000803e3d6000fd5b505050505b506320c13b0b60e01b95945050505050565b606060007f60b3cbf8b4a223d68d641b3b6ddf9a298e7f33710cf3d3a9d1146b5a6150fbca60001b83805190602001206040516020016109b3929190918252602082015260400190565b604051602081830303815290604052805190602001209050601960f81b600160f81b856001600160a01b031663f698da256040518163ffffffff1660e01b8152600401602060405180830381865afa158015610a13573d6000803e3d6000fd5b505050506040513d601f19601f82011682018060405250810190610a379190612e12565b6040516001600160f81b0319938416602082015292909116602183015260228201526042810182905260620160405160208183030381529060405291505092915050565b600254600003610a8757565b60005b600254811015610b90574260028281548110610aa857610aa8612e60565b600091825260209091206002909102015465ffffffffffff161015610b7e57610b3b60028281548110610add57610add612e60565b906000526020600020906002020160010160009054906101000a90046001600160a01b031660028381548110610b1557610b15612e60565b6000918252602090912060029091020154600160301b90046001600160a01b031661182b565b60028181548110610b4e57610b4e612e60565b6000918252602090912060029091020180546001600160d01b031916815560010180546001600160a01b03191690555b80610b8881612e8c565b915050610a8a565b50565b7ff0c57e16840df040f15088dc2f81fe391c3923bec73e23a9662efc9c229c6a008054600160401b810460ff1615906001600160401b0316600081158015610bd85750825b90506000826001600160401b03166001148015610bf45750303b155b905081158015610c02575080155b15610c205760405163f92ee8a960e01b815260040160405180910390fd5b845467ffffffffffffffff191660011785558315610c4a57845460ff60401b1916600160401b1785555b610c5387611b00565b610c5b611b11565b610c63611b19565b600080546001600160a01b0319166001600160a01b0388161790558315610cc457845460ff60401b19168555604051600181527fc7f505b2f371ae2175ee4913f4499e1f2633a7b5936321eed1cdaeb6115181d29060200160405180910390a15b50505050505050565b610cd5611b29565b610cde82611bce565b6104ab8282611bd6565b6000610cf2611c98565b506000805160206131c183398151915290565b6000610d118383610969565b80519060200120905092915050565b610d28611ce1565b610d326000611d3c565b565b333b610d535760405163041bbac760e31b815260040160405180910390fd5b6040516317aa5fb760e11b81526001600160a01b03821660048201523390632f54bf6e90602401602060405180830381865afa158015610d97573d6000803e3d6000fd5b505050506040513d601f19601f82011682018060405250810190610dbb9190612ea5565b610dd8576040516328e32f5760e11b815260040160405180910390fd5b610b90338261182b565b610dea610a7b565b5050505050505050505050565b604051636617c22960e11b815260016004820152600a60248201526060903390600090829063cc2f845290604401600060405180830381865afa158015610e42573d6000803e3d6000fd5b505050506040513d6000823e601f3d908101601f19168201604052610e6a9190810190612f4a565b509392505050565b60008165ffffffffffff16118015610e915750428165ffffffffffff16105b15610eaf57604051631c88b45d60e11b815260040160405180910390fd5b3360008860008054604051635fbfb9cf60e01b81526001600160a01b0386811660048301526024820185905293945091921690635fbfb9cf906044016020604051808303816000875af1158015610f0a573d6000803e3d6000fd5b505050506040513d601f19601f82011682018060405250810190610f2e9190612f90565b90506000610f728a8a8a8080601f016020809104026020016040519081016040528093929190818152602001838380828437600092019190915250611dad92505050565b9050836001600160a01b0316816001600160a01b031603610fa657604051632ed3775360e11b815260040160405180910390fd5b6040518060a001604052808665ffffffffffff16815260200188888080601f01602080910402602001604051908101604052809392919081815260200183838082843760009201829052509385525050506001600160a01b038781166020808501829052868316604080870191909152928816606090950194909452825260018084528183208f8452845291208351815465ffffffffffff191665ffffffffffff909116178155918301519082019061105f9082613035565b506040828101516002830180546001600160a01b03199081166001600160a01b039384161790915560608501516003850180548316918416919091179055608090940151600490930180549094169281169290921790925590518b8152908516907f070669e6be82aa9b077a096b0f9617893a4dc5cb05897e27fd7a6112c8e6629e9060200160405180910390a25050505050505050505050565b606060405163b4faba0960e01b8152600436036004808301376020600036836000335af1505060203d036040519150808201604052806020833e5060005161081757805160208201fd5b6002818154811061115457600080fd5b60009182526020909120600290910201805460019091015465ffffffffffff821692506001600160a01b03600160301b9092048216911683565b3360009081526001602081815260408084208885528252808420815160a08101909252805465ffffffffffff16825292830180549193928401916111d190612fad565b80601f01602080910402602001604051908101604052809291908181526020018280546111fd90612fad565b801561124a5780601f1061121f5761010080835404028352916020019161124a565b820191906000526020600020905b81548152906001019060200180831161122d57829003601f168201915b505050918352505060028201546001600160a01b0390811660208301526003830154811660408301526004909201548216606091820152820151919250166112a557604051631ae9d48f60e11b815260040160405180910390fd5b805165ffffffffffff16158015906112c8575042816000015165ffffffffffff16105b156112e657604051631c88b45d60e11b815260040160405180910390fd5b604081015133906001600160a01b0316811461131557604051633b136dc160e11b815260040160405180910390fd5b6000611325868460200151611dad565b9050816001600160a01b0316816001600160a01b03161461135957604051633b136dc160e11b815260040160405180910390fd5b82606001516001600160a01b03166113a78787878080601f016020809104026020016040519081016040528093929190818152602001838380828437600092019190915250611dad92505050565b6001600160a01b0316146113ce576040516389d52d5f60e01b815260040160405180910390fd5b6113e083608001518460600151611de6565b6040805160608082018352855165ffffffffffff9081168352908601516001600160a01b03908116602080850191825260808901518316858701908152600280546001818101835560008381529851919092027f405787fa12a823e0f2b7631cc41b3ba8828b3321ca811111fa75cd3aa3bb5ace8101805496518816600160301b026001600160d01b0319909716929098169190911794909417909555517f405787fa12a823e0f2b7631cc41b3ba8828b3321ca811111fa75cd3aa3bb5acf90920180549284166001600160a01b03199093169290921790915590861683528181528383208b84529052918120805465ffffffffffff19168155916114e790830182612475565b506002810180546001600160a01b031990811690915560038201805482169055600490910180549091169055608083015160608401516040516001600160a01b03918216815291811691908416907f603c57ecb4a9802537649ceb6523e5d48c939e7856768ce6f9b3128a889a5cfe9060200160405180910390a350505050505050565b333b61158a5760405163041bbac760e31b815260040160405180910390fd5b6040516317aa5fb760e11b81526001600160a01b03821660048201523390632f54bf6e90602401602060405180830381865afa1580156115ce573d6000803e3d6000fd5b505050506040513d601f19601f820116820180604052508101906115f29190612ea5565b1561161057604051630e1857b360e21b815260040160405180910390fd5b610b903382611de6565b611622611ce1565b6001600160a01b03811661164c57604051631e4fbdf760e01b8152600060048201526024016108e8565b610b9081611d3c565b600160208181526000938452604080852090915291835291208054918101805465ffffffffffff9093169261168990612fad565b80601f01602080910402602001604051908101604052809291908181526020018280546116b590612fad565b80156117025780601f106116d757610100808354040283529160200191611702565b820191906000526020600020905b8154815290600101906020018083116116e557829003601f168201915b505050506002830154600384015460049094015492936001600160a01b039182169390821692501685565b60007f8b73c3c69bb8fe3d512ecc4cf759cc79239f7b179b0ffacaa9a75d522b39400f60001b6040518060400160405280600e81526020016d53657373696f6e204d6f64756c6560901b81525060405160200161178a91906130f4565b6040516020818303038152906040528051906020012060405180604001604052806005815260200164181718171960d91b8152506040516020016117ce91906130f4565b604051602081830303815290604052805190602001206117eb4690565b604080516020810195909552840192909252606083015260808201523060a082015260c00160405160208183030381529060405280519060200120905090565b6040516317aa5fb760e11b81526001600160a01b038281166004830152839190821690632f54bf6e90602401602060405180830381865afa158015611874573d6000803e3d6000fd5b505050506040513d601f19601f820116820180604052508101906118989190612ea5565b6118b5576040516328e32f5760e11b815260040160405180910390fd5b6000816001600160a01b031663e75235b86040518163ffffffff1660e01b8152600401602060405180830381865afa1580156118f5573d6000803e3d6000fd5b505050506040513d601f19601f820116820180604052508101906119199190612e12565b90506000826001600160a01b031663a0e67e2b6040518163ffffffff1660e01b8152600401600060405180830381865afa15801561195b573d6000803e3d6000fd5b505050506040513d6000823e601f3d908101601f191682016040526119839190810190613110565b905060018460005b8351811015611a0a57866001600160a01b03168482815181106119b0576119b0612e60565b60200260200101516001600160a01b0316036119f85780156119f357836119d8600183613144565b815181106119e8576119e8612e60565b602002602001015192505b611a0a565b80611a0281612e8c565b91505061198b565b506040516001600160a01b038084166024830152821660448201526064810185905260009060840160408051601f198184030181529181526020820180516001600160e01b031663f8dc5dd960e01b1790525163468721a760e01b81529091506000906001600160a01b038a169063468721a790611a92908c90859087908290600401613157565b6020604051808303816000875af1158015611ab1573d6000803e3d6000fd5b505050506040513d601f19601f82011682018060405250810190611ad59190612ea5565b905080611af5576040516310da247360e01b815260040160405180910390fd5b505050505050505050565b611b08611f55565b610b9081611f9e565b610d32611f55565b611b21611f55565b610d32611fa6565b306001600160a01b037f0000000000000000000000000000000000000000000000000000000000000000161480611bb057507f00000000000000000000000000000000000000000000000000000000000000006001600160a01b0316611ba46000805160206131c1833981519152546001600160a01b031690565b6001600160a01b031614155b15610d325760405163703e46dd60e11b815260040160405180910390fd5b610b90611ce1565b816001600160a01b03166352d1902d6040518163ffffffff1660e01b8152600401602060405180830381865afa925050508015611c30575060408051601f3d908101601f19168201909252611c2d91810190612e12565b60015b611c5857604051634c9c8ce360e01b81526001600160a01b03831660048201526024016108e8565b6000805160206131c18339815191528114611c8957604051632a87526960e21b8152600481018290526024016108e8565b611c938383611fd4565b505050565b306001600160a01b037f00000000000000000000000000000000000000000000000000000000000000001614610d325760405163703e46dd60e11b815260040160405180910390fd5b33611d137f9016d09d72d40fdae2fd8ceac6b6234c7706214fd39c1cd1e609a0528c199300546001600160a01b031690565b6001600160a01b031614610d325760405163118cdaa760e01b81523360048201526024016108e8565b7f9016d09d72d40fdae2fd8ceac6b6234c7706214fd39c1cd1e609a0528c19930080546001600160a01b031981166001600160a01b03848116918217845560405192169182907f8be0079c531659141344cd1fd0a4f28419497f9722a3daafe3b4186f6b6457e090600090a3505050565b7f19457468657265756d205369676e6564204d6573736167653a0a3332000000006000908152601c839052603c8120610817908361202a565b813b611e055760405163041bbac760e31b815260040160405180910390fd5b6000826001600160a01b031663e75235b86040518163ffffffff1660e01b8152600401602060405180830381865afa158015611e45573d6000803e3d6000fd5b505050506040513d601f19601f82011682018060405250810190611e699190612e12565b6040516001600160a01b03841660248201526044810182905290915060009060640160408051601f198184030181529181526020820180516001600160e01b0316630d582f1360e01b1790525163468721a760e01b81529091506000906001600160a01b0386169063468721a790611eeb908890859087908290600401613157565b6020604051808303816000875af1158015611f0a573d6000803e3d6000fd5b505050506040513d601f19601f82011682018060405250810190611f2e9190612ea5565b905080611f4e5760405163dfae2d2f60e01b815260040160405180910390fd5b5050505050565b7ff0c57e16840df040f15088dc2f81fe391c3923bec73e23a9662efc9c229c6a0054600160401b900460ff16610d3257604051631afcd79f60e31b815260040160405180910390fd5b611622611f55565b611fae611f55565b60017f9b779b17422d0df92223018b32b4d1fa46e071723d6817e2486d003becc55f0055565b611fdd82612290565b6040516001600160a01b038316907fbc7cd75a20ee27fd9adebab32041f755214dbc6bffa90cc0225b39da2e5c2d3b90600090a280511561202257611c9382826122f5565b6104ab61236b565b600081516041146120915760405162461bcd60e51b815260206004820152603a60248201526000805160206131e183398151915260448201527f3a20696e76616c6964207369676e6174757265206c656e67746800000000000060648201526084016108e8565b6000826040815181106120a6576120a6612e60565b016020015160f81c905060006120bc848261238a565b905060006120cb85602061238a565b90507f7fffffffffffffffffffffffffffffff5d576e7357a4501ddfe92f46681b20a08111156121515760405162461bcd60e51b815260206004820152603d60248201526000805160206131e183398151915260448201527f3a20696e76616c6964207369676e6174757265202773272076616c756500000060648201526084016108e8565b8260ff16601b1415801561216957508260ff16601c14155b156121ca5760405162461bcd60e51b815260206004820152603d60248201526000805160206131e183398151915260448201527f3a20696e76616c6964207369676e6174757265202776272076616c756500000060648201526084016108e8565b60408051600081526020810180835288905260ff851691810191909152606081018390526080810182905260019060a0016020604051602081039080840390855afa15801561221d573d6000803e3d6000fd5b5050604051601f1901519450506001600160a01b0384166122875760405162461bcd60e51b815260206004820152603060248201526000805160206131e183398151915260448201526f1d1024a72b20a624a22fa9a4a3a722a960811b60648201526084016108e8565b50505092915050565b806001600160a01b03163b6000036122c657604051634c9c8ce360e01b81526001600160a01b03821660048201526024016108e8565b6000805160206131c183398151915280546001600160a01b0319166001600160a01b0392909216919091179055565b6060600080846001600160a01b03168460405161231291906130f4565b600060405180830381855af49150503d806000811461234d576040519150601f19603f3d011682016040523d82523d6000602084013e612352565b606091505b50915091506123628583836123f0565b95945050505050565b3415610d325760405163b398979f60e01b815260040160405180910390fd5b60006123978260206131ad565b835110156123e75760405162461bcd60e51b815260206004820181905260248201527f72656164427974657333323a20696e76616c69642064617461206c656e67746860448201526064016108e8565b50016020015190565b606082612405576124008261244c565b610817565b815115801561241c57506001600160a01b0384163b155b1561244557604051639996b31560e01b81526001600160a01b03851660048201526024016108e8565b5080610817565b80511561245c5780518082602001fd5b604051630a12f52160e11b815260040160405180910390fd5b50805461248190612fad565b6000825580601f10612491575050565b601f016020900490600052602060002090810190610b9091905b808211156124bf57600081556001016124ab565b5090565b6001600160a01b0381168114610b9057600080fd5b80356124e3816124c3565b919050565b60008083601f8401126124fa57600080fd5b5081356001600160401b0381111561251157600080fd5b60208301915083602082850101111561252957600080fd5b9250929050565b60008060008060008060008060c0898b03121561254c57600080fd5b8835612557816124c3565b97506020890135612567816124c3565b96506040890135612577816124c3565b95506060890135945060808901356001600160401b038082111561259a57600080fd5b6125a68c838d016124e8565b909650945060a08b01359150808211156125bf57600080fd5b506125cc8b828c016124e8565b999c989b5096995094979396929594505050565b6001600160e01b031981168114610b9057600080fd5b60006020828403121561260857600080fd5b8135610817816125e0565b634e487b7160e01b600052604160045260246000fd5b604051601f8201601f191681016001600160401b038111828210171561265157612651612613565b604052919050565b600082601f83011261266a57600080fd5b81356001600160401b0381111561268357612683612613565b612696601f8201601f1916602001612629565b8181528460208386010111156126ab57600080fd5b816020850160208301376000918101602001919091529392505050565b6000602082840312156126da57600080fd5b81356001600160401b038111156126f057600080fd5b6126fc84828501612659565b949350505050565b60008060008060006080868803121561271c57600080fd5b8535612727816124c3565b94506020860135612737816124c3565b93506040860135925060608601356001600160401b0381111561275957600080fd5b612765888289016124e8565b969995985093965092949392505050565b60008060006040848603121561278b57600080fd5b8335925060208401356001600160401b038111156127a857600080fd5b6127b4868287016124e8565b9497909650939450505050565b600080604083850312156127d457600080fd5b82356001600160401b03808211156127eb57600080fd5b6127f786838701612659565b9350602085013591508082111561280d57600080fd5b5061281a85828601612659565b9150509250929050565b6000806040838503121561283757600080fd5b8235612842816124c3565b915060208301356001600160401b0381111561285d57600080fd5b61281a85828601612659565b60005b8381101561288457818101518382015260200161286c565b50506000910152565b600081518084526128a5816020860160208601612869565b601f01601f19169290920160200192915050565b602081526000610817602083018461288d565b600080604083850312156128df57600080fd5b82356128ea816124c3565b915060208301356128fa816124c3565b809150509250929050565b60006020828403121561291757600080fd5b8135610817816124c3565b8035600281106124e357600080fd5b60008060008060008060008060008060006101608c8e03121561295357600080fd5b61295c8c6124d8565b9a5060208c013599506001600160401b038060408e0135111561297e57600080fd5b61298e8e60408f01358f01612659565b995061299c60608e01612922565b985060808d0135975060a08d0135965060c08d013595506129bf60e08e016124d8565b94506129ce6101008e016124d8565b9350806101208e013511156129e257600080fd5b506129f48d6101208e01358e01612659565b9150612a036101408d016124d8565b90509295989b509295989b9093969950565b8015158114610b9057600080fd5b60008060408385031215612a3657600080fd5b8235915060208301356128fa81612a15565b6020808252825182820181905260009190848201906040850190845b81811015612a895783516001600160a01b031683529284019291840191600101612a64565b50909695505050505050565b60008083601f840112612aa757600080fd5b5081356001600160401b03811115612abe57600080fd5b6020830191508360208260051b850101111561252957600080fd5b60008060008060008060008060a0898b031215612af557600080fd5b8835612b00816124c3565b97506020890135612b10816124c3565b965060408901356001600160401b0380821115612b2c57600080fd5b612b388c838d01612a95565b909850965060608b0135915080821115612b5157600080fd5b612b5d8c838d01612a95565b909650945060808b01359150808211156125bf57600080fd5b600080600080600080600060a0888a031215612b9157600080fd5b873596506020880135955060408801356001600160401b0380821115612bb657600080fd5b612bc28b838c016124e8565b909750955060608a0135915080821115612bdb57600080fd5b50612be88a828b016124e8565b909450925050608088013565ffffffffffff81168114612c0757600080fd5b8091505092959891949750929550565b600080600060408486031215612c2c57600080fd5b8335612c37816124c3565b925060208401356001600160401b038111156127a857600080fd5b600060208284031215612c6457600080fd5b5035919050565b60008060008060608587031215612c8157600080fd5b843593506020850135925060408501356001600160401b03811115612ca557600080fd5b612cb1878288016124e8565b95989497509550505050565b60008060008060008060a08789031215612cd657600080fd5b8635612ce1816124c3565b95506020870135612cf1816124c3565b9450604087013593506060870135925060808701356001600160401b03811115612d1a57600080fd5b612d2689828a016124e8565b979a9699509497509295939492505050565b60008060408385031215612d4b57600080fd5b8235612d56816124c3565b946020939093013593505050565b65ffffffffffff8616815260a060208201526000612d8560a083018761288d565b6001600160a01b039586166040840152938516606083015250921660809092019190915292915050565b604081526000612dc2604083018661288d565b8281036020840152838152838560208301376000602085830101526020601f19601f860116820101915050949350505050565b600060208284031215612e0757600080fd5b8151610817816125e0565b600060208284031215612e2457600080fd5b5051919050565b838152606060208201526000612e44606083018561288d565b8281036040840152612e56818561288d565b9695505050505050565b634e487b7160e01b600052603260045260246000fd5b634e487b7160e01b600052601160045260246000fd5b600060018201612e9e57612e9e612e76565b5060010190565b600060208284031215612eb757600080fd5b815161081781612a15565b600082601f830112612ed357600080fd5b815160206001600160401b03821115612eee57612eee612613565b8160051b612efd828201612629565b9283528481018201928281019087851115612f1757600080fd5b83870192505b84831015612f3f578251612f30816124c3565b82529183019190830190612f1d565b979650505050505050565b60008060408385031215612f5d57600080fd5b82516001600160401b03811115612f7357600080fd5b612f7f85828601612ec2565b92505060208301516128fa816124c3565b600060208284031215612fa257600080fd5b8151610817816124c3565b600181811c90821680612fc157607f821691505b602082108103612fe157634e487b7160e01b600052602260045260246000fd5b50919050565b601f821115611c9357600081815260208120601f850160051c8101602086101561300e5750805b601f850160051c820191505b8181101561302d5782815560010161301a565b505050505050565b81516001600160401b0381111561304e5761304e612613565b6130628161305c8454612fad565b84612fe7565b602080601f831160018114613097576000841561307f5750858301515b600019600386901b1c1916600185901b17855561302d565b600085815260208120601f198616915b828110156130c6578886015182559484019460019091019084016130a7565b50858210156130e45787850151600019600388901b60f8161c191681555b5050505050600190811b01905550565b60008251613106818460208701612869565b9190910192915050565b60006020828403121561312257600080fd5b81516001600160401b0381111561313857600080fd5b6126fc84828501612ec2565b8181038181111561074e5761074e612e76565b60018060a01b038516815283602082015260806040820152600061317e608083018561288d565b90506002831061319e57634e487b7160e01b600052602160045260246000fd5b82606083015295945050505050565b8082018082111561074e5761074e612e7656fe360894a13ba1a3210667c828492db98dca3e2076cc3735a920a3ca505d382bbc5369676e617475726556616c696461746f72237265636f7665725369676e6572a26469706673582212207eb13b627c39b1b3222e35880703c6c520aaf8db6a16d988f5b260a429535f1164736f6c63430008140033",
    "linkReferences": {}
  },
  "methodIdentifiers": {
    "NAME()": "a3f4df7e",
    "UPGRADE_INTERFACE_VERSION()": "ad3cb1cc",
    "VERSION()": "ffa1ad74",
    "activeSessions(uint256)": "c6e5a419",
    "addSigner(address)": "eb12d61e",
    "checkAfterExecution(bytes32,bool)": "93271368",
    "checkTransaction(address,uint256,bytes,uint8,uint256,uint256,uint256,address,address,bytes,address)": "75f0bb52",
    "confirm(bytes32,bytes32,bytes)": "e26be210",
    "contractExists(address)": "7709bc78",
    "domainSeparator()": "f698da25",
    "encodeMessageDataForSafe(address,bytes)": "23031640",
    "getChainId()": "3408e470",
    "getMessageHash(bytes)": "0a1028c4",
    "getMessageHashForSafe(address,bytes)": "6ac24784",
    "getModules()": "b2494df3",
    "initialize(address,address)": "485cc955",
    "isValidSignature(bytes,bytes)": "20c13b0b",
    "isValidSignature(bytes32,bytes)": "1626ba7e",
    "onERC1155BatchReceived(address,address,uint256[],uint256[],bytes)": "bc197c81",
    "onERC1155Received(address,address,uint256,uint256,bytes)": "f23a6e61",
    "onERC721Received(address,address,uint256,bytes)": "150b7a02",
    "owner()": "8da5cb5b",
    "proxiableUUID()": "52d1902d",
    "removeExpiredSessions()": "3f8c0a10",
    "renounceOwnership()": "715018a6",
    "request(bytes32,bytes32,bytes,bytes,uint48)": "bd177693",
    "revoke(address)": "74a8f103",
    "sessionRequests(address,bytes32)": "f681de3b",
    "simulate(address,bytes)": "bd61951d",
    "supportsInterface(bytes4)": "01ffc9a7",
    "tokensReceived(address,address,address,uint256,bytes,bytes)": "0023de29",
    "transferOwnership(address)": "f2fde38b",
    "twoFAFactory()": "ee2b8f3e",
    "upgradeToAndCall(address,bytes)": "4f1ef286"
  },
  "storageLayout": {
    "storage": [
      {
        "astId": 53721,
        "contract": "src/Modules/Session/SessionManagerModule.sol:SessionManagerModule",
        "label": "twoFAFactory",
        "offset": 0,
        "slot": "0",
        "type": "t_address"
      },
      {
        "astId": 53728,
        "contract": "src/Modules/Session/SessionManagerModule.sol:SessionManagerModule",
        "label": "sessionRequests",
        "offset": 0,
        "slot": "1",
        "type": "t_mapping(t_address,t_mapping(t_bytes32,t_struct(SessionRequest)54559_storage))"
      },
      {
        "astId": 53732,
        "contract": "src/Modules/Session/SessionManagerModule.sol:SessionManagerModule",
        "label": "activeSessions",
        "offset": 0,
        "slot": "2",
        "type": "t_array(t_struct(ActiveSession)54566_storage)dyn_storage"
      }
    ],
    "types": {
      "t_address": {
        "encoding": "inplace",
        "label": "address",
        "numberOfBytes": "20"
      },
      "t_array(t_struct(ActiveSession)54566_storage)dyn_storage": {
        "encoding": "dynamic_array",
        "label": "struct ActiveSession[]",
        "numberOfBytes": "32",
        "base": "t_struct(ActiveSession)54566_storage"
      },
      "t_bytes32": {
        "encoding": "inplace",
        "label": "bytes32",
        "numberOfBytes": "32"
      },
      "t_bytes_storage": {
        "encoding": "bytes",
        "label": "bytes",
        "numberOfBytes": "32"
      },
      "t_mapping(t_address,t_mapping(t_bytes32,t_struct(SessionRequest)54559_storage))": {
        "encoding": "mapping",
        "key": "t_address",
        "label": "mapping(address => mapping(bytes32 => struct SessionRequest))",
        "numberOfBytes": "32",
        "value": "t_mapping(t_bytes32,t_struct(SessionRequest)54559_storage)"
      },
      "t_mapping(t_bytes32,t_struct(SessionRequest)54559_storage)": {
        "encoding": "mapping",
        "key": "t_bytes32",
        "label": "mapping(bytes32 => struct SessionRequest)",
        "numberOfBytes": "32",
        "value": "t_struct(SessionRequest)54559_storage"
      },
      "t_struct(ActiveSession)54566_storage": {
        "encoding": "inplace",
        "label": "struct ActiveSession",
        "numberOfBytes": "64",
        "members": [
          {
            "astId": 54561,
            "contract": "src/Modules/Session/SessionManagerModule.sol:SessionManagerModule",
            "label": "expiry",
            "offset": 0,
            "slot": "0",
            "type": "t_uint48"
          },
          {
            "astId": 54563,
            "contract": "src/Modules/Session/SessionManagerModule.sol:SessionManagerModule",
            "label": "owner",
            "offset": 6,
            "slot": "0",
            "type": "t_address"
          },
          {
            "astId": 54565,
            "contract": "src/Modules/Session/SessionManagerModule.sol:SessionManagerModule",
            "label": "account",
            "offset": 0,
            "slot": "1",
            "type": "t_address"
          }
        ]
      },
      "t_struct(SessionRequest)54559_storage": {
        "encoding": "inplace",
        "label": "struct SessionRequest",
        "numberOfBytes": "160",
        "members": [
          {
            "astId": 54550,
            "contract": "src/Modules/Session/SessionManagerModule.sol:SessionManagerModule",
            "label": "expiry",
            "offset": 0,
            "slot": "0",
            "type": "t_uint48"
          },
          {
            "astId": 54552,
            "contract": "src/Modules/Session/SessionManagerModule.sol:SessionManagerModule",
            "label": "signedSessionHash",
            "offset": 0,
            "slot": "1",
            "type": "t_bytes_storage"
          },
          {
            "astId": 54554,
            "contract": "src/Modules/Session/SessionManagerModule.sol:SessionManagerModule",
            "label": "provider",
            "offset": 0,
            "slot": "2",
            "type": "t_address"
          },
          {
            "astId": 54556,
            "contract": "src/Modules/Session/SessionManagerModule.sol:SessionManagerModule",
            "label": "owner",
            "offset": 0,
            "slot": "3",
            "type": "t_address"
          },
          {
            "astId": 54558,
            "contract": "src/Modules/Session/SessionManagerModule.sol:SessionManagerModule",
            "label": "account",
            "offset": 0,
            "slot": "4",
            "type": "t_address"
          }
        ]
      },
      "t_uint48": {
        "encoding": "inplace",
        "label": "uint48",
        "numberOfBytes": "6"
      }
    }
  },
  "id": 118
}